{
  "_format": "hh-sol-artifact-1",
  "contractName": "FlashLoanArbitrage",
  "sourceName": "contracts/FlashLoanArbitrage.sol",
  "abi": [
    {
      "inputs": [
        {
          "internalType": "address",
          "name": "_addressProvider",
          "type": "address"
        }
      ],
      "stateMutability": "nonpayable",
      "type": "constructor"
    },
    {
      "anonymous": false,
      "inputs": [
        {
          "indexed": false,
          "internalType": "address",
          "name": "previousAdmin",
          "type": "address"
        },
        {
          "indexed": false,
          "internalType": "address",
          "name": "newAdmin",
          "type": "address"
        }
      ],
      "name": "AdminChanged",
      "type": "event"
    },
    {
      "anonymous": false,
      "inputs": [
        {
          "indexed": false,
          "internalType": "address[]",
          "name": "path",
          "type": "address[]"
        },
        {
          "indexed": false,
          "internalType": "uint256",
          "name": "profit",
          "type": "uint256"
        }
      ],
      "name": "ArbitrageExecuted",
      "type": "event"
    },
    {
      "anonymous": false,
      "inputs": [
        {
          "indexed": true,
          "internalType": "address",
          "name": "beacon",
          "type": "address"
        }
      ],
      "name": "BeaconUpgraded",
      "type": "event"
    },
    {
      "anonymous": false,
      "inputs": [
        {
          "indexed": true,
          "internalType": "string",
          "name": "dex",
          "type": "string"
        },
        {
          "indexed": false,
          "internalType": "address",
          "name": "router",
          "type": "address"
        }
      ],
      "name": "DexRouterUpdated",
      "type": "event"
    },
    {
      "anonymous": false,
      "inputs": [
        {
          "indexed": false,
          "internalType": "address",
          "name": "token",
          "type": "address"
        },
        {
          "indexed": false,
          "internalType": "uint256",
          "name": "amount",
          "type": "uint256"
        }
      ],
      "name": "EmergencyWithdraw",
      "type": "event"
    },
    {
      "anonymous": false,
      "inputs": [
        {
          "indexed": false,
          "internalType": "address",
          "name": "token",
          "type": "address"
        },
        {
          "indexed": false,
          "internalType": "uint256",
          "name": "amount",
          "type": "uint256"
        }
      ],
      "name": "FlashLoanExecuted",
      "type": "event"
    },
    {
      "anonymous": false,
      "inputs": [
        {
          "indexed": false,
          "internalType": "uint8",
          "name": "version",
          "type": "uint8"
        }
      ],
      "name": "Initialized",
      "type": "event"
    },
    {
      "anonymous": false,
      "inputs": [
        {
          "indexed": true,
          "internalType": "address",
          "name": "previousOwner",
          "type": "address"
        },
        {
          "indexed": true,
          "internalType": "address",
          "name": "newOwner",
          "type": "address"
        }
      ],
      "name": "OwnershipTransferred",
      "type": "event"
    },
    {
      "anonymous": false,
      "inputs": [
        {
          "indexed": false,
          "internalType": "uint256",
          "name": "newThreshold",
          "type": "uint256"
        }
      ],
      "name": "ProfitThresholdUpdated",
      "type": "event"
    },
    {
      "anonymous": false,
      "inputs": [
        {
          "indexed": false,
          "internalType": "string",
          "name": "strategyType",
          "type": "string"
        },
        {
          "indexed": false,
          "internalType": "bytes",
          "name": "strategyData",
          "type": "bytes"
        }
      ],
      "name": "StrategyUpdated",
      "type": "event"
    },
    {
      "anonymous": false,
      "inputs": [
        {
          "indexed": true,
          "internalType": "address",
          "name": "implementation",
          "type": "address"
        }
      ],
      "name": "Upgraded",
      "type": "event"
    },
    {
      "inputs": [],
      "name": "ADDRESSES_PROVIDER",
      "outputs": [
        {
          "internalType": "contract IPoolAddressesProvider",
          "name": "",
          "type": "address"
        }
      ],
      "stateMutability": "view",
      "type": "function"
    },
    {
      "inputs": [],
      "name": "POOL",
      "outputs": [
        {
          "internalType": "contract IPool",
          "name": "",
          "type": "address"
        }
      ],
      "stateMutability": "view",
      "type": "function"
    },
    {
      "inputs": [],
      "name": "WETH",
      "outputs": [
        {
          "internalType": "address",
          "name": "",
          "type": "address"
        }
      ],
      "stateMutability": "view",
      "type": "function"
    },
    {
      "inputs": [
        {
          "internalType": "string",
          "name": "",
          "type": "string"
        }
      ],
      "name": "dexConfigs",
      "outputs": [
        {
          "internalType": "address",
          "name": "router",
          "type": "address"
        },
        {
          "internalType": "enum FlashLoanArbitrage.DexType",
          "name": "dexType",
          "type": "uint8"
        },
        {
          "internalType": "bool",
          "name": "enabled",
          "type": "bool"
        },
        {
          "internalType": "bool",
          "name": "isStablePair",
          "type": "bool"
        }
      ],
      "stateMutability": "view",
      "type": "function"
    },
    {
      "inputs": [
        {
          "internalType": "address",
          "name": "token",
          "type": "address"
        }
      ],
      "name": "emergencyWithdraw",
      "outputs": [],
      "stateMutability": "nonpayable",
      "type": "function"
    },
    {
      "inputs": [
        {
          "internalType": "address",
          "name": "asset",
          "type": "address"
        },
        {
          "internalType": "uint256",
          "name": "amount",
          "type": "uint256"
        },
        {
          "internalType": "string[]",
          "name": "dexes",
          "type": "string[]"
        },
        {
          "internalType": "address[]",
          "name": "path",
          "type": "address[]"
        },
        {
          "internalType": "uint256[]",
          "name": "amountsOutMin",
          "type": "uint256[]"
        },
        {
          "internalType": "bytes[]",
          "name": "swapData",
          "type": "bytes[]"
        }
      ],
      "name": "executeArbitrage",
      "outputs": [],
      "stateMutability": "nonpayable",
      "type": "function"
    },
    {
      "inputs": [
        {
          "internalType": "address",
          "name": "asset",
          "type": "address"
        },
        {
          "internalType": "uint256",
          "name": "amount",
          "type": "uint256"
        },
        {
          "internalType": "uint256",
          "name": "premium",
          "type": "uint256"
        },
        {
          "internalType": "address",
          "name": "",
          "type": "address"
        },
        {
          "internalType": "bytes",
          "name": "params",
          "type": "bytes"
        }
      ],
      "name": "executeOperation",
      "outputs": [
        {
          "internalType": "bool",
          "name": "",
          "type": "bool"
        }
      ],
      "stateMutability": "nonpayable",
      "type": "function"
    },
    {
      "inputs": [
        {
          "internalType": "address",
          "name": "initialOwner",
          "type": "address"
        },
        {
          "internalType": "uint256",
          "name": "_minProfitThreshold",
          "type": "uint256"
        },
        {
          "internalType": "uint256",
          "name": "_maxSlippage",
          "type": "uint256"
        }
      ],
      "name": "initialize",
      "outputs": [],
      "stateMutability": "nonpayable",
      "type": "function"
    },
    {
      "inputs": [],
      "name": "maxSlippage",
      "outputs": [
        {
          "internalType": "uint256",
          "name": "",
          "type": "uint256"
        }
      ],
      "stateMutability": "view",
      "type": "function"
    },
    {
      "inputs": [],
      "name": "minProfitThreshold",
      "outputs": [
        {
          "internalType": "uint256",
          "name": "",
          "type": "uint256"
        }
      ],
      "stateMutability": "view",
      "type": "function"
    },
    {
      "inputs": [],
      "name": "owner",
      "outputs": [
        {
          "internalType": "address",
          "name": "",
          "type": "address"
        }
      ],
      "stateMutability": "view",
      "type": "function"
    },
    {
      "inputs": [],
      "name": "proxiableUUID",
      "outputs": [
        {
          "internalType": "bytes32",
          "name": "",
          "type": "bytes32"
        }
      ],
      "stateMutability": "view",
      "type": "function"
    },
    {
      "inputs": [],
      "name": "renounceOwnership",
      "outputs": [],
      "stateMutability": "nonpayable",
      "type": "function"
    },
    {
      "inputs": [
        {
          "internalType": "string",
          "name": "strategyType",
          "type": "string"
        },
        {
          "internalType": "bytes",
          "name": "strategyData",
          "type": "bytes"
        }
      ],
      "name": "setStrategy",
      "outputs": [],
      "stateMutability": "nonpayable",
      "type": "function"
    },
    {
      "inputs": [
        {
          "internalType": "bytes32",
          "name": "",
          "type": "bytes32"
        }
      ],
      "name": "strategies",
      "outputs": [
        {
          "internalType": "bytes",
          "name": "",
          "type": "bytes"
        }
      ],
      "stateMutability": "view",
      "type": "function"
    },
    {
      "inputs": [
        {
          "internalType": "address",
          "name": "newOwner",
          "type": "address"
        }
      ],
      "name": "transferOwnership",
      "outputs": [],
      "stateMutability": "nonpayable",
      "type": "function"
    },
    {
      "inputs": [
        {
          "internalType": "string",
          "name": "dex",
          "type": "string"
        },
        {
          "internalType": "address",
          "name": "router",
          "type": "address"
        },
        {
          "internalType": "enum FlashLoanArbitrage.DexType",
          "name": "dexType",
          "type": "uint8"
        },
        {
          "internalType": "uint24[]",
          "name": "feeTiers",
          "type": "uint24[]"
        },
        {
          "internalType": "bool",
          "name": "enabled",
          "type": "bool"
        },
        {
          "internalType": "bool",
          "name": "isStablePair",
          "type": "bool"
        }
      ],
      "name": "updateDexConfig",
      "outputs": [],
      "stateMutability": "nonpayable",
      "type": "function"
    },
    {
      "inputs": [
        {
          "internalType": "uint256",
          "name": "_minProfitThreshold",
          "type": "uint256"
        }
      ],
      "name": "updateProfitThreshold",
      "outputs": [],
      "stateMutability": "nonpayable",
      "type": "function"
    },
    {
      "inputs": [
        {
          "internalType": "address",
          "name": "newImplementation",
          "type": "address"
        }
      ],
      "name": "upgradeTo",
      "outputs": [],
      "stateMutability": "nonpayable",
      "type": "function"
    },
    {
      "inputs": [
        {
          "internalType": "address",
          "name": "newImplementation",
          "type": "address"
        },
        {
          "internalType": "bytes",
          "name": "data",
          "type": "bytes"
        }
      ],
      "name": "upgradeToAndCall",
      "outputs": [],
      "stateMutability": "payable",
      "type": "function"
    },
    {
      "stateMutability": "payable",
      "type": "receive"
    }
  ],
  "bytecode": "0x60e0604052306080523480156200001557600080fd5b50604051620047f0380380620047f0833981016040819052620000389162000197565b80806001600160a01b031660a0816001600160a01b031681525050806001600160a01b031663026b1d5f6040518163ffffffff1660e01b8152600401602060405180830381865afa15801562000092573d6000803e3d6000fd5b505050506040513d601f19601f82011682018060405250810190620000b8919062000197565b6001600160a01b031660c05250620000cf620000d6565b50620001c9565b600054610100900460ff1615620001435760405162461bcd60e51b815260206004820152602760248201527f496e697469616c697a61626c653a20636f6e747261637420697320696e697469604482015266616c697a696e6760c81b606482015260840160405180910390fd5b60005460ff9081161462000195576000805460ff191660ff9081179091556040519081527f7f26b83ff96e1f2b6a682f133852f6798a09c465da95921460cefb38474024989060200160405180910390a15b565b600060208284031215620001aa57600080fd5b81516001600160a01b0381168114620001c257600080fd5b9392505050565b60805160a05160c0516145cd6200022360003960008181610348015281816107fa0152611e3d015260006101bc0152600081816108a2015281816108e201528181610a5f01528181610a9f0152610b3201526145cd6000f3fe6080604052600436106101235760003560e01c8063715018a6116100a05780638da5cb5b116100645780638da5cb5b146103a0578063ad5c4648146103be578063d5384d81146103d9578063e407f191146103f9578063f2fde38b1461041957600080fd5b8063715018a61461030b5780637341ab8c146103205780637535d246146103365780637a1ac61e1461036a5780638c04166f1461038a57600080fd5b80633ff34eb9116100e75780633ff34eb9146102685780634f1ef2861461029557806352d1902d146102a85780635a0968c2146102cb5780636ff1c9bc146102eb57600080fd5b806303f386b21461012f5780630542975c146101aa5780631b11d0ff146101f65780633659cfe61461022657806339ef20671461024857600080fd5b3661012a57005b600080fd5b34801561013b57600080fd5b5061019161014a366004613730565b805160208183018101805160fd82529282019190930120915280546002909101546001600160a01b03821691600160a01b900460ff90811691818116916101009091041684565b6040516101a1949392919061378e565b60405180910390f35b3480156101b657600080fd5b506101de7f000000000000000000000000000000000000000000000000000000000000000081565b6040516001600160a01b0390911681526020016101a1565b34801561020257600080fd5b50610216610211366004613846565b610439565b60405190151581526020016101a1565b34801561023257600080fd5b506102466102413660046138c1565b610897565b005b34801561025457600080fd5b506102466102633660046138de565b610977565b34801561027457600080fd5b506102886102833660046138de565b6109ba565b6040516101a1919061394f565b6102466102a3366004613962565b610a54565b3480156102b457600080fd5b506102bd610b25565b6040519081526020016101a1565b3480156102d757600080fd5b506102466102e63660046139c5565b610bd8565b3480156102f757600080fd5b506102466103063660046138c1565b610c6c565b34801561031757600080fd5b50610246610d96565b34801561032c57600080fd5b506102bd60fb5481565b34801561034257600080fd5b506101de7f000000000000000000000000000000000000000000000000000000000000000081565b34801561037657600080fd5b50610246610385366004613a30565b610daa565b34801561039657600080fd5b506102bd60fc5481565b3480156103ac57600080fd5b506097546001600160a01b03166101de565b3480156103ca57600080fd5b506101de6006602160991b0181565b3480156103e557600080fd5b506102466103f4366004613aa9565b611bec565b34801561040557600080fd5b50610246610414366004613b97565b611f07565b34801561042557600080fd5b506102466104343660046138c1565b6120f0565b60008061047b84848080601f01602080910402602001604051908101604052809392919081815260200183838082843760009201919091525061216692505050565b6040516370a0823160e01b81523060048201529091506000906001600160a01b038a16906370a0823190602401602060405180830381865afa1580156104c5573d6000803e3d6000fd5b505050506040513d601f19601f820116820180604052508101906104e99190613c59565b90508760005b60018460200151516105019190613c88565b8110156106c05761059560fd8560000151838151811061052357610523613c9f565b60200260200101516040516105389190613cb5565b908152602001604051809103902060000160009054906101000a90046001600160a01b031660008660200151848151811061057557610575613c9f565b60200260200101516001600160a01b03166121d39092919063ffffffff16565b61060160fd856000015183815181106105b0576105b0613c9f565b60200260200101516040516105c59190613cb5565b908152602001604051809103902060000160009054906101000a90046001600160a01b0316838660200151848151811061057557610575613c9f565b6106ac8460000151828151811061061a5761061a613c9f565b60200260200101518560200151838151811061063857610638613c9f565b602002602001015186602001518460016106529190613cd1565b8151811061066257610662613c9f565b6020026020010151858860400151868151811061068157610681613c9f565b60200260200101518960600151878151811061069f5761069f613c9f565b6020026020010151612320565b9150806106b881613ce9565b9150506104ef565b506040516370a0823160e01b81523060048201526000906001600160a01b038c16906370a0823190602401602060405180830381865afa158015610708573d6000803e3d6000fd5b505050506040513d601f19601f8201168201806040525081019061072c9190613c59565b90506107388984613cd1565b8110156107825760405162461bcd60e51b8152602060048201526013602482015272125b9cdd59999a58da595b9d081c1c9bd99a5d606a1b60448201526064015b60405180910390fd5b670de0b6b3a764000060fb54846107999190613d04565b6107a39190613d23565b6107ad9084613cd1565b8110156107f55760405162461bcd60e51b8152602060048201526016602482015275141c9bd99a5d0818995b1bddc81d1a1c995cda1bdb1960521b6044820152606401610779565b6108347f00000000000000000000000000000000000000000000000000000000000000006108238b8d613cd1565b6001600160a01b038e1691906121d3565b60208401517f426701c6f3b17562f96a1fb097d24ad12be6944ab15deab49d357c160d06742f908a6108668685613c88565b6108709190613c88565b60405161087e929190613d89565b60405180910390a15060019a9950505050505050505050565b306001600160a01b037f00000000000000000000000000000000000000000000000000000000000000001614156108e05760405162461bcd60e51b815260040161077990613dab565b7f00000000000000000000000000000000000000000000000000000000000000006001600160a01b0316610929600080516020614551833981519152546001600160a01b031690565b6001600160a01b03161461094f5760405162461bcd60e51b815260040161077990613df7565b61095881612a50565b6040805160008082526020820190925261097491839190612a58565b50565b61097f612bc3565b60fb8190556040518181527fc5023cc86199e71ca52157b0b124ddbda596c9fb8bab5bb7028d162fa3ed55459060200160405180910390a150565b60fe60205260009081526040902080546109d390613e43565b80601f01602080910402602001604051908101604052809291908181526020018280546109ff90613e43565b8015610a4c5780601f10610a2157610100808354040283529160200191610a4c565b820191906000526020600020905b815481529060010190602001808311610a2f57829003601f168201915b505050505081565b306001600160a01b037f0000000000000000000000000000000000000000000000000000000000000000161415610a9d5760405162461bcd60e51b815260040161077990613dab565b7f00000000000000000000000000000000000000000000000000000000000000006001600160a01b0316610ae6600080516020614551833981519152546001600160a01b031690565b6001600160a01b031614610b0c5760405162461bcd60e51b815260040161077990613df7565b610b1582612a50565b610b2182826001612a58565b5050565b6000306001600160a01b037f00000000000000000000000000000000000000000000000000000000000000001614610bc55760405162461bcd60e51b815260206004820152603860248201527f555550535570677261646561626c653a206d757374206e6f742062652063616c60448201527f6c6564207468726f7567682064656c656761746563616c6c00000000000000006064820152608401610779565b5060008051602061455183398151915290565b610be0612bc3565b60008484604051602001610bf5929190613e7e565b60408051601f198184030181529181528151602092830120600081815260fe9093529120909150610c27908484613549565b507fba16b886240c375cd82b3fabb3fc14d75c3caefd6d4c4895f0e2c7d8f919e82c85858585604051610c5d9493929190613eb7565b60405180910390a15050505050565b610c74612bc3565b6040516370a0823160e01b81523060048201526000906001600160a01b038316906370a0823190602401602060405180830381865afa158015610cbb573d6000803e3d6000fd5b505050506040513d601f19601f82011682018060405250810190610cdf9190613c59565b905060008111610d2a5760405162461bcd60e51b81526020600482015260166024820152754e6f2062616c616e636520746f20776974686472617760501b6044820152606401610779565b610d50610d3f6097546001600160a01b031690565b6001600160a01b0384169083612c1d565b604080516001600160a01b0384168152602081018390527f5fafa99d0643513820be26656b45130b01e1c03062e1266bf36f88cbd3bd9695910160405180910390a15050565b610d9e612bc3565b610da86000612c4d565b565b600054610100900460ff1615808015610dca5750600054600160ff909116105b80610de45750303b158015610de4575060005460ff166001145b610e475760405162461bcd60e51b815260206004820152602e60248201527f496e697469616c697a61626c653a20636f6e747261637420697320616c72656160448201526d191e481a5b9a5d1a585b1a5e995960921b6064820152608401610779565b6000805460ff191660011790558015610e6a576000805461ff0019166101001790555b610e72612c9f565b610e7b84612c4d565b610e83612cce565b610e8b612cfd565b60fb83905560fc82905560408051600480825260a0820190925260009160208201608080368337019050509050606481600081518110610ecd57610ecd613c9f565b602002602001019062ffffff16908162ffffff16815250506101f481600181518110610efb57610efb613c9f565b602002602001019062ffffff16908162ffffff1681525050610bb881600281518110610f2957610f29613c9f565b602002602001019062ffffff16908162ffffff168152505061271081600381518110610f5757610f57613c9f565b62ffffff929092166020928302919091018201526040805160a081018252732626664c2603336e57b271c5c0b26f421741e4818152600192810183905280820184905260608101929092526000608083015251660756e69737761760cc1b815260fd90600701908152604051908190036020908101909120825181546001600160a01b039091166001600160a01b031982168117835592840151919283916001600160a81b03191617600160a01b83600281111561101757611017613778565b0217905550604082015180516110379160018401916020909101906135cd565b5060608201516002909101805460809093015115156101000261ff00199215159290921661ffff1990931692909217179055600080604051908082528060200260200182016040528015611095578160200160208202803683370190505b506040805160a081018252738a742c6907ea9ad400953744f201b319b4c398a4815260006020820181905281830184905260016060830152608082015290516807375736869737761760bc1b81529192509060fd90600901908152604051908190036020908101909120825181546001600160a01b039091166001600160a01b031982168117835592840151919283916001600160a81b03191617600160a01b83600281111561114757611147613778565b0217905550604082015180516111679160018401916020909101906135cd565b5060608201516002909101805460809093015115156101000261ff00199215159290921661ffff19909316929092171790556040805160a0810190915273327df1e6de05895d2ab08513aadd9313fe505d86815260208101600081526020018281526020016001151581526020016000151581525060fd6040516111f99067062617365737761760c41b815260080190565b908152604051908190036020908101909120825181546001600160a01b039091166001600160a01b031982168117835592840151919283916001600160a81b03191617600160a01b83600281111561125357611253613778565b0217905550604082015180516112739160018401916020909101906135cd565b506060820151600291909101805460809384015115156101000261ff00199315159390931661ffff199091161791909117905560408051600480825260a082019092526000929091906020830190803683370190505090506064816000815181106112e0576112e0613c9f565b602002602001019062ffffff16908162ffffff16815250506101f48160018151811061130e5761130e613c9f565b602002602001019062ffffff16908162ffffff16815250506109c48160028151811061133c5761133c613c9f565b602002602001019062ffffff16908162ffffff16815250506127108160038151811061136a5761136a613c9f565b62ffffff929092166020928302919091018201526040805160a08101825273678aa4bf4e210cf2166753e054d5b7c31cc7fa8681526001928101839052808201849052606081019290925260006080830152516a070616e63616b65737761760ac1b815260fd90600b01908152604051908190036020908101909120825181546001600160a01b039091166001600160a01b031982168117835592840151919283916001600160a81b03191617600160a01b83600281111561142e5761142e613778565b02179055506040820151805161144e9160018401916020909101906135cd565b506060820151600291909101805460809384015115156101000261ff00199315159390931661ffff199091161791909117905560408051600480825260a082019092526000929091906020830190803683370190505090506064816000815181106114bb576114bb613c9f565b602002602001019062ffffff16908162ffffff16815250506101f4816001815181106114e9576114e9613c9f565b602002602001019062ffffff16908162ffffff1681525050610bb88160028151811061151757611517613c9f565b602002602001019062ffffff16908162ffffff16815250506127108160038151811061154557611545613c9f565b62ffffff929092166020928302919091018201526040805160a0810182527332d02fc7722e81f6ac6bd1b70ef5277ed3566fb98152600292810192909252818101839052600160608301526000608083015251676d6176657269636b60c01b815260fd90600801908152604051908190036020908101909120825181546001600160a01b039091166001600160a01b031982168117835592840151919283916001600160a81b03191617600160a01b83600281111561160657611606613778565b0217905550604082015180516116269160018401916020909101906135cd565b5060608201516002909101805460809093015115156101000261ff00199215159290921661ffff19909316929092171790556040805160a0810190915273b0505d78a2a6d49fa6e4905ba9d6efc472b642c2815260208101600081526020018481526020016001151581526020016000151581525060fd6040516116b99068616c69656e6261736560b81b815260090190565b908152604051908190036020908101909120825181546001600160a01b039091166001600160a01b031982168117835592840151919283916001600160a81b03191617600160a01b83600281111561171357611713613778565b0217905550604082015180516117339160018401916020909101906135cd565b5060608201516002909101805460809093015115156101000261ff00199215159290921661ffff19909316929092171790556040805160a0810190915273327df1e6de05895d2ab08513aadd9313fe505d86815260208101600081526020018481526020016001151581526020016000151581525060fd6040516117c690681cddd85c18985cd95960ba1b815260090190565b908152604051908190036020908101909120825181546001600160a01b039091166001600160a01b031982168117835592840151919283916001600160a81b03191617600160a01b83600281111561182057611820613778565b0217905550604082015180516118409160018401916020909101906135cd565b5060608201516002909101805460809093015115156101000261ff00199215159290921661ffff19909316929092171790556040805160a0810190915273cf77a3ba9a5ca399b7c97c74d54e5b1beb874e43815260208101600081526020018481526020016001151581526020016000151581525060fd6040516118d390686165726f64726f6d6560b81b815260090190565b908152604051908190036020908101909120825181546001600160a01b039091166001600160a01b031982168117835592840151919283916001600160a81b03191617600160a01b83600281111561192d5761192d613778565b02179055506040820151805161194d9160018401916020909101906135cd565b5060608201516002909101805460809093015115156101000261ff00199215159290921661ffff19909316929092171790556040805160a08101909152735589d08c49cdddf48bb9f6e648c587d5d4533b28815260208101600081526020018481526020016001151581526020016000151581525060fd6040516119e09068073796e7468737761760bc1b815260090190565b908152604051908190036020908101909120825181546001600160a01b039091166001600160a01b031982168117835592840151919283916001600160a81b03191617600160a01b836002811115611a3a57611a3a613778565b021790555060408201518051611a5a9160018401916020909101906135cd565b5060608201516002909101805460809093015115156101000261ff00199215159290921661ffff19909316929092171790556040805160a0810190915273e8c1365e4ef99f8bf69c5bb34ea54b622a43f367815260208101600081526020018481526020016001151581526020016000151581525060fd604051611aee90690d0dee4d2f4dedcc8caf60b31b8152600a0190565b908152604051908190036020908101909120825181546001600160a01b039091166001600160a01b031982168117835592840151919283916001600160a81b03191617600160a01b836002811115611b4857611b48613778565b021790555060408201518051611b689160018401916020909101906135cd565b5060608201516002909101805460809093015115156101000261ff00199215159290921661ffff1990931692909217179055505082159150611be69050576000805461ff0019169055604051600181527f7f26b83ff96e1f2b6a682f133852f6798a09c465da95921460cefb38474024989060200160405180910390a15b50505050565b611bf4612bc3565b611bfc612d24565b60018511611c425760405162461bcd60e51b8152602060048201526013602482015272092dcecc2d8d2c840e0c2e8d040d8cadccee8d606b1b6044820152606401610779565b8585611c4f600182613c88565b818110611c5e57611c5e613c9f565b9050602002016020810190611c7391906138c1565b6001600160a01b031686866000818110611c8f57611c8f613c9f565b9050602002016020810190611ca491906138c1565b6001600160a01b031614611cf35760405162461bcd60e51b8152602060048201526016602482015275092dcecc2d8d2c840c2e4c4d2e8e4c2ceca40e0c2e8d60531b6044820152606401610779565b611cfe600186613c88565b8714611d435760405162461bcd60e51b8152602060048201526014602482015273092dcecc2d8d2c840c8caf0cae640d8cadccee8d60631b6044820152606401610779565b611d4e600186613c88565b8314611d9c5760405162461bcd60e51b815260206004820152601c60248201527f496e76616c696420616d6f756e74734f75744d696e206c656e677468000000006044820152606401610779565b611da7600186613c88565b8114611df55760405162461bcd60e51b815260206004820152601760248201527f496e76616c6964207377617044617461206c656e6774680000000000000000006044820152606401610779565b60008888888888888888604051602001611e16989796959493929190613ff4565b60408051601f19818403018152908290526310ac2ddf60e21b825291506001600160a01b037f000000000000000000000000000000000000000000000000000000000000000016906342b0b77c90611e7b9030908f908f90879060009060040161409d565b600060405180830381600087803b158015611e9557600080fd5b505af1158015611ea9573d6000803e3d6000fd5b5050604080516001600160a01b038f168152602081018e90527f601a662d311cd4ce5f0345feba42cb1b573094143c46c6f5bb901d6e8578a23a935001905060405180910390a150611efb600160c955565b50505050505050505050565b611f0f612bc3565b6001600160a01b038616611f5e5760405162461bcd60e51b8152602060048201526016602482015275496e76616c696420726f75746572206164647265737360501b6044820152606401610779565b6040518060a00160405280876001600160a01b03168152602001866002811115611f8a57611f8a613778565b815260200185858080602002602001604051908101604052809392919081815260200183836020028082843760009201919091525050509082525083151560208201528215156040918201525160fd90611fe7908b908b90613e7e565b908152604051908190036020908101909120825181546001600160a01b039091166001600160a01b031982168117835592840151919283916001600160a81b03191617600160a01b83600281111561204157612041613778565b0217905550604082015180516120619160018401916020909101906135cd565b5060608201516002909101805460809093015115156101000261ff00199215159290921661ffff19909316929092171790556040516120a39089908990613e7e565b6040519081900381206001600160a01b0388168252907fcd9eb1d8eaef2a7a704d54b38f07db521cfe05cff25c1a73f862370c47a2f4e49060200160405180910390a25050505050505050565b6120f8612bc3565b6001600160a01b03811661215d5760405162461bcd60e51b815260206004820152602660248201527f4f776e61626c653a206e6577206f776e657220697320746865207a65726f206160448201526564647265737360d01b6064820152608401610779565b61097481612c4d565b6121916040518060800160405280606081526020016060815260200160608152602001606081525090565b600080600080858060200190518101906121ab9190614297565b6040805160808101825294855260208501939093529183015260608201529695505050505050565b80158061224d5750604051636eb1769f60e11b81523060048201526001600160a01b03838116602483015284169063dd62ed3e90604401602060405180830381865afa158015612227573d6000803e3d6000fd5b505050506040513d601f19601f8201168201806040525081019061224b9190613c59565b155b6122b85760405162461bcd60e51b815260206004820152603660248201527f5361666545524332303a20617070726f76652066726f6d206e6f6e2d7a65726f60448201527520746f206e6f6e2d7a65726f20616c6c6f77616e636560501b6064820152608401610779565b6040516001600160a01b03831660248201526044810182905261231b90849063095ea7b360e01b906064015b60408051601f198184030181529190526020810180516001600160e01b03166001600160e01b031990931692909217909152612d85565b505050565b60008060fd886040516123339190613cb5565b908152604080516020928190038301812060a0820190925281546001600160a01b03811682529092830190600160a01b900460ff16600281111561237957612379613778565b600281111561238a5761238a613778565b81526020016001820180548060200260200160405190810160405280929190818152602001828054801561240757602002820191906000526020600020906000905b82829054906101000a900462ffffff1662ffffff16815260200190600301906020826002010492830192600103820291508084116123cc5790505b50505091835250506002919091015460ff8082161515602084015261010090910416151560409091015260608101519091506124775760405162461bcd60e51b815260206004820152600f60248201526e111156081b9bdd08195b98589b1959608a1b6044820152606401610779565b60408051600280825260608201835260009260208301908036833701905050905087816000815181106124ac576124ac613c9f565b60200260200101906001600160a01b031690816001600160a01b03168152505086816001815181106124e0576124e0613c9f565b6001600160a01b0390921660209283029190910190910152606060006125084261012c613cd1565b905060008460200151600281111561252257612522613778565b14156127b15760408051808201909152600981526807375736869737761760bc1b6020918201528b51908c01207f6b368d086df1aee085e2153c3563b8277337bab4b2aa409a33bf9238030e9b85141561258a576125838389893085612e5a565b915061298a565b604080518082019091526008815267062617365737761760c41b6020918201528b51908c01207f79705f03f271656041ff9e6bcd6b52287f8b442b97983927d0aefa57ed3a151914156125e4576125838389893085612e5a565b604080518082019091526009815268616c69656e6261736560b81b6020918201528b51908c01207ffe41dca3e3e0e5d813d971a30325c7dd743a5698c77369a76b955c04257eb1f8141561263f576125838389893085612e5a565b6040805180820190915260098152681cddd85c18985cd95960ba1b6020918201528b51908c01207fabc05864cd9f04067d686236c5ce27ff89e32cf7b5a3f4dd59b9dedabef283bd141561269a576125838389893085612e5a565b6040805180820190915260098152686165726f64726f6d6560b81b6020918201528b51908c01207fc570e6c17f57bc6841b1057f94fcf1785f440006714dbd98f64d859b54cd25d314156126f5576125838389893085612e5a565b604080518082019091526009815268073796e7468737761760bc1b6020918201528b51908c01207fa0ee94e0612a814a8a3f8e35b95c90ac61730d12beeb455e675443ea21f1bc6e1415612750576125838389893085612e5a565b60408051808201909152600a8152690d0dee4d2f4dedcc8caf60b31b6020918201528b51908c01207fe19b6e7ff3b348a924c96005c021f0bd1e8810647a3bc5032450099d35be61e014156127ac576125838389893085612e5a565b61298a565b6001846020015160028111156127c9576127c9613778565b14156128f65760006127e08b8b8760800151612e73565b6040805160018082528183019092529192506000919060208083019080368337019050509050818160008151811061281a5761281a613c9f565b62ffffff9092166020928302919091018201526040805180820190915260078152660756e69737761760cc1b908201528d51908e01207fa2a03459171c76bff45817330c10ef9f8af07011a33005b73b50189bbc7e7132141561288c5761288585828c8c3088612e8f565b93506128ef565b60408051808201909152600b81526a070616e63616b65737761760ac1b6020918201528d51908e01207fd7e0d5c07ddc27357df5c45737f3b7506ed8b6a6631c211732cdda1dfcf56ba314156128ef576128ec85828c8c30886001612f18565b93505b505061298a565b60028460200151600281111561290e5761290e613778565b141561298a5760006129258b8b8760800151612e73565b6040805160018082528183019092529192506000919060208083019080368337019050509050818160008151811061295f5761295f613c9f565b602002602001019062ffffff16908162ffffff168152505061298585828c8c3088612f4d565b935050505b60008085600001516001600160a01b0316846040516129a99190613cb5565b6000604051808303816000865af19150503d80600081146129e6576040519150601f19603f3d011682016040523d82523d6000602084013e6129eb565b606091505b509150915081612a2b5760405162461bcd60e51b815260206004820152600b60248201526a14ddd85c0819985a5b195960aa1b6044820152606401610779565b80806020019051810190612a3f9190613c59565b9d9c50505050505050505050505050565b610974612bc3565b7f4910fdfa16fed3260ed0e7147f7cc6da11a60208b5b9406d12a635614ffd91435460ff1615612a8b5761231b83612f97565b826001600160a01b03166352d1902d6040518163ffffffff1660e01b8152600401602060405180830381865afa925050508015612ae5575060408051601f3d908101601f19168201909252612ae291810190613c59565b60015b612b485760405162461bcd60e51b815260206004820152602e60248201527f45524331393637557067726164653a206e657720696d706c656d656e7461746960448201526d6f6e206973206e6f74205555505360901b6064820152608401610779565b6000805160206145518339815191528114612bb75760405162461bcd60e51b815260206004820152602960248201527f45524331393637557067726164653a20756e737570706f727465642070726f786044820152681a58589b195555525160ba1b6064820152608401610779565b5061231b838383613033565b6097546001600160a01b03163314610da85760405162461bcd60e51b815260206004820181905260248201527f4f776e61626c653a2063616c6c6572206973206e6f7420746865206f776e65726044820152606401610779565b6040516001600160a01b03831660248201526044810182905261231b90849063a9059cbb60e01b906064016122e4565b609780546001600160a01b038381166001600160a01b0319831681179093556040519116919082907f8be0079c531659141344cd1fd0a4f28419497f9722a3daafe3b4186f6b6457e090600090a35050565b600054610100900460ff16612cc65760405162461bcd60e51b8152600401610779906143cb565b610da8613058565b600054610100900460ff16612cf55760405162461bcd60e51b8152600401610779906143cb565b610da8613088565b600054610100900460ff16610da85760405162461bcd60e51b8152600401610779906143cb565b600260c9541415612d775760405162461bcd60e51b815260206004820152601f60248201527f5265656e7472616e637947756172643a207265656e7472616e742063616c6c006044820152606401610779565b600260c955565b600160c955565b6000612dda826040518060400160405280602081526020017f5361666545524332303a206c6f772d6c6576656c2063616c6c206661696c6564815250856001600160a01b03166130af9092919063ffffffff16565b9050805160001480612dfb575080806020019051810190612dfb9190614416565b61231b5760405162461bcd60e51b815260206004820152602a60248201527f5361666545524332303a204552433230206f7065726174696f6e20646964206e6044820152691bdd081cdd58d8d9595960b21b6064820152608401610779565b6060612e6986868686866130c6565b9695505050505050565b60008115612e8357506064612e88565b50610bb85b9392505050565b60606000612e9d888861313f565b90507fc04b8d590f54358a9bd8b37bb111b5fac5fac725979832603f2a7228458db4998185858989604051602401612ed9959493929190614433565b60408051601f198184030181529190526020810180516001600160e01b03166001600160e01b0319909316929092179091529150509695505050505050565b60608115612f3557612f2e888888888888612e8f565b9050612f42565b612f2e88878787876130c6565b979650505050505050565b60606000612f5b888861313f565b90507f41f9ad6516733e9499baf3d05b727e77a683f53160ad417057e9c62831ccb5418185858989604051602401612ed9959493929190614433565b6001600160a01b0381163b6130045760405162461bcd60e51b815260206004820152602d60248201527f455243313936373a206e657720696d706c656d656e746174696f6e206973206e60448201526c1bdd08184818dbdb9d1c9858dd609a1b6064820152608401610779565b60008051602061455183398151915280546001600160a01b0319166001600160a01b0392909216919091179055565b61303c8361330f565b6000825111806130495750805b1561231b57611be6838361334f565b600054610100900460ff1661307f5760405162461bcd60e51b8152600401610779906143cb565b610da833612c4d565b600054610100900460ff16612d7e5760405162461bcd60e51b8152600401610779906143cb565b60606130be8484600085613374565b949350505050565b60607f38ed1739ee07daf49933f1800d1a9bc8d39a6876ea11e643f9c4c39c66df0ee88585888686604051602401613102959493929190614473565b60408051601f198184030181529190526020810180516001600160e01b03166001600160e01b031990931692909217909152905095945050505050565b60606002835110156131895760405162461bcd60e51b8152602060048201526013602482015272092dcecc2d8d2c840e0c2e8d040d8cadccee8d606b1b6044820152606401610779565b600183516131979190613c88565b8251146131dc5760405162461bcd60e51b8152602060048201526013602482015272092dcecc2d8d2c840cccacae640d8cadccee8d606b1b6044820152606401610779565b60408051600080825260208201909252905b600185516131fc9190613c88565b81101561330757600285516132119190613c88565b81141561329c578185828151811061322b5761322b613c9f565b602002602001015185838151811061324557613245613c9f565b60200260200101518784600161325b9190613cd1565b8151811061326b5761326b613c9f565b602002602001015160405160200161328694939291906144af565b60405160208183030381529060405291506132f5565b818582815181106132af576132af613c9f565b60200260200101518583815181106132c9576132c9613c9f565b60200260200101516040516020016132e393929190614504565b60405160208183030381529060405291505b806132ff81613ce9565b9150506131ee565b509392505050565b61331881612f97565b6040516001600160a01b038216907fbc7cd75a20ee27fd9adebab32041f755214dbc6bffa90cc0225b39da2e5c2d3b90600090a250565b6060612e88838360405180606001604052806027815260200161457160279139613444565b6060824710156133d55760405162461bcd60e51b815260206004820152602660248201527f416464726573733a20696e73756666696369656e742062616c616e636520666f6044820152651c8818d85b1b60d21b6064820152608401610779565b600080866001600160a01b031685876040516133f19190613cb5565b60006040518083038185875af1925050503d806000811461342e576040519150601f19603f3d011682016040523d82523d6000602084013e613433565b606091505b5091509150612f42878383876134ae565b6060600080856001600160a01b0316856040516134619190613cb5565b600060405180830381855af49150503d806000811461349c576040519150601f19603f3d011682016040523d82523d6000602084013e6134a1565b606091505b5091509150612e69868383875b6060831561351a578251613513576001600160a01b0385163b6135135760405162461bcd60e51b815260206004820152601d60248201527f416464726573733a2063616c6c20746f206e6f6e2d636f6e74726163740000006044820152606401610779565b50816130be565b6130be838381511561352f5781518083602001fd5b8060405162461bcd60e51b8152600401610779919061394f565b82805461355590613e43565b90600052602060002090601f01602090048101928261357757600085556135bd565b82601f106135905782800160ff198235161785556135bd565b828001600101855582156135bd579182015b828111156135bd5782358255916020019190600101906135a2565b506135c9929150613670565b5090565b82805482825590600052602060002090600901600a900481019282156135bd5791602002820160005b8382111561363857835183826101000a81548162ffffff021916908362ffffff16021790555092602001926003016020816002010492830192600103026135f6565b80156136675782816101000a81549062ffffff0219169055600301602081600201049283019260010302613638565b50506135c99291505b5b808211156135c95760008155600101613671565b634e487b7160e01b600052604160045260246000fd5b604051601f8201601f191681016001600160401b03811182821017156136c3576136c3613685565b604052919050565b60006001600160401b038211156136e4576136e4613685565b50601f01601f191660200190565b6000613705613700846136cb565b61369b565b905082815283838301111561371957600080fd5b828260208301376000602084830101529392505050565b60006020828403121561374257600080fd5b81356001600160401b0381111561375857600080fd5b8201601f8101841361376957600080fd5b6130be848235602084016136f2565b634e487b7160e01b600052602160045260246000fd5b6001600160a01b038516815260808101600385106137bc57634e487b7160e01b600052602160045260246000fd5b602082019490945291151560408301521515606090910152919050565b6001600160a01b038116811461097457600080fd5b80356137f9816137d9565b919050565b60008083601f84011261381057600080fd5b5081356001600160401b0381111561382757600080fd5b60208301915083602082850101111561383f57600080fd5b9250929050565b60008060008060008060a0878903121561385f57600080fd5b863561386a816137d9565b955060208701359450604087013593506060870135613888816137d9565b925060808701356001600160401b038111156138a357600080fd5b6138af89828a016137fe565b979a9699509497509295939492505050565b6000602082840312156138d357600080fd5b8135612e88816137d9565b6000602082840312156138f057600080fd5b5035919050565b60005b838110156139125781810151838201526020016138fa565b83811115611be65750506000910152565b6000815180845261393b8160208601602086016138f7565b601f01601f19169290920160200192915050565b602081526000612e886020830184613923565b6000806040838503121561397557600080fd5b8235613980816137d9565b915060208301356001600160401b0381111561399b57600080fd5b8301601f810185136139ac57600080fd5b6139bb858235602084016136f2565b9150509250929050565b600080600080604085870312156139db57600080fd5b84356001600160401b03808211156139f257600080fd5b6139fe888389016137fe565b90965094506020870135915080821115613a1757600080fd5b50613a24878288016137fe565b95989497509550505050565b600080600060608486031215613a4557600080fd5b8335613a50816137d9565b95602085013595506040909401359392505050565b60008083601f840112613a7757600080fd5b5081356001600160401b03811115613a8e57600080fd5b6020830191508360208260051b850101111561383f57600080fd5b60008060008060008060008060008060c08b8d031215613ac857600080fd5b613ad18b6137ee565b995060208b0135985060408b01356001600160401b0380821115613af457600080fd5b613b008e838f01613a65565b909a50985060608d0135915080821115613b1957600080fd5b613b258e838f01613a65565b909850965060808d0135915080821115613b3e57600080fd5b613b4a8e838f01613a65565b909650945060a08d0135915080821115613b6357600080fd5b50613b708d828e01613a65565b915080935050809150509295989b9194979a5092959850565b801515811461097457600080fd5b60008060008060008060008060c0898b031215613bb357600080fd5b88356001600160401b0380821115613bca57600080fd5b613bd68c838d016137fe565b909a50985060208b01359150613beb826137d9565b90965060408a01359060038210613c0157600080fd5b90955060608a01359080821115613c1757600080fd5b50613c248b828c01613a65565b9095509350506080890135613c3881613b89565b915060a0890135613c4881613b89565b809150509295985092959890939650565b600060208284031215613c6b57600080fd5b5051919050565b634e487b7160e01b600052601160045260246000fd5b600082821015613c9a57613c9a613c72565b500390565b634e487b7160e01b600052603260045260246000fd5b60008251613cc78184602087016138f7565b9190910192915050565b60008219821115613ce457613ce4613c72565b500190565b6000600019821415613cfd57613cfd613c72565b5060010190565b6000816000190483118215151615613d1e57613d1e613c72565b500290565b600082613d4057634e487b7160e01b600052601260045260246000fd5b500490565b600081518084526020808501945080840160005b83811015613d7e5781516001600160a01b031687529582019590820190600101613d59565b509495945050505050565b604081526000613d9c6040830185613d45565b90508260208301529392505050565b6020808252602c908201527f46756e6374696f6e206d7573742062652063616c6c6564207468726f7567682060408201526b19195b1959d85d1958d85b1b60a21b606082015260800190565b6020808252602c908201527f46756e6374696f6e206d7573742062652063616c6c6564207468726f7567682060408201526b6163746976652070726f787960a01b606082015260800190565b600181811c90821680613e5757607f821691505b60208210811415613e7857634e487b7160e01b600052602260045260246000fd5b50919050565b8183823760009101908152919050565b81835281816020850137506000828201602090810191909152601f909101601f19169091010190565b604081526000613ecb604083018688613e8e565b8281036020840152612f42818587613e8e565b6000808335601e19843603018112613ef557600080fd5b83016020810192503590506001600160401b03811115613f1457600080fd5b80360383131561383f57600080fd5b8183526000602080850194508260005b85811015613d7e578135613f46816137d9565b6001600160a01b031687529582019590820190600101613f33565b81835260006001600160fb1b03831115613f7a57600080fd5b8260051b8083602087013760009401602001938452509192915050565b81835260006020808501808196508560051b810191508460005b87811015613fe7578284038952613fc88288613ede565b613fd3868284613e8e565b9a87019a9550505090840190600101613fb1565b5091979650505050505050565b60808082528101889052600060a060058a901b830181019083018b835b8c81101561404e57858403609f1901835261402c828f613ede565b614037868284613e8e565b955050506020928301929190910190600101614011565b505050828103602084015261406481898b613f23565b90508281036040840152614079818789613f61565b9050828103606084015261408e818587613f97565b9b9a5050505050505050505050565b6001600160a01b038681168252851660208201526040810184905260a0606082018190526000906140d090830185613923565b905061ffff831660808301529695505050505050565b60006001600160401b038211156140ff576140ff613685565b5060051b60200190565b6000614117613700846136cb565b905082815283838301111561412b57600080fd5b612e888360208301846138f7565b600082601f83011261414a57600080fd5b8151602061415a613700836140e6565b82815260059290921b8401810191818101908684111561417957600080fd5b8286015b8481101561419d578051614190816137d9565b835291830191830161417d565b509695505050505050565b600082601f8301126141b957600080fd5b815160206141c9613700836140e6565b82815260059290921b840181019181810190868411156141e857600080fd5b8286015b8481101561419d57805183529183019183016141ec565b600082601f83011261421457600080fd5b81516020614224613700836140e6565b82815260059290921b8401810191818101908684111561424357600080fd5b8286015b8481101561419d5780516001600160401b038111156142665760008081fd5b8701603f810189136142785760008081fd5b614289898683015160408401614109565b845250918301918301614247565b600080600080608085870312156142ad57600080fd5b84516001600160401b03808211156142c457600080fd5b818701915087601f8301126142d857600080fd5b815160206142e8613700836140e6565b82815260059290921b8401810191818101908b84111561430757600080fd5b8286015b84811015614354578051868111156143235760008081fd5b8701603f81018e136143355760008081fd5b6143468e8683015160408401614109565b84525091830191830161430b565b50918a015191985090935050508082111561436e57600080fd5b61437a88838901614139565b9450604087015191508082111561439057600080fd5b61439c888389016141a8565b935060608701519150808211156143b257600080fd5b506143bf87828801614203565b91505092959194509250565b6020808252602b908201527f496e697469616c697a61626c653a20636f6e7472616374206973206e6f74206960408201526a6e697469616c697a696e6760a81b606082015260800190565b60006020828403121561442857600080fd5b8151612e8881613b89565b60a08152600061444660a0830188613923565b6001600160a01b039690961660208301525060408101939093526060830191909152608090910152919050565b85815284602082015260a06040820152600061449260a0830186613d45565b6001600160a01b0394909416606083015250608001529392505050565b600085516144c1818460208a016138f7565b606095861b6bffffffffffffffffffffffff199081169390910192835260e89490941b6001600160e81b031916601483015250921b166017820152602b01919050565b600084516145168184602089016138f7565b60609490941b6bffffffffffffffffffffffff19169190930190815260e89190911b6001600160e81b03191660148201526017019291505056fe360894a13ba1a3210667c828492db98dca3e2076cc3735a920a3ca505d382bbc416464726573733a206c6f772d6c6576656c2064656c65676174652063616c6c206661696c6564a264697066735822122082c09e71b59fb793eed5c7a158409b709455f7c82a5cbb269086f526fc2ef8d464736f6c634300080a0033",
  "linkReferences": {},
  "deployedLinkReferences": {}
}